:1000000015C1000043C1000041C100003FC1000014
:100010003DC100003BC1000039C1000037C10000F4
:1000200035C1000033C1000031C100002FC1000004
:100030002DC100002BC1000029C1000027C1000014
:1000400025C1000023C1000021C100001FC1000024
:100050001DC100001BC1000019C10000D6C6000070
:1000600015C100009CC6000071C600000FC1000051
:100070000DC100000BC1000009C1000007C1000054
:1000800005C1000003C1000001C10000FFC0000065
:10009000FDC00000FBC00000F9C00000F7C0000078
:1000A000F5C00000F3C00000F1C00000EFC0000088
:1000B000EDC00000EBC00000E9C00000E7C0000098
:1000C000E5C00000E3C00000E1C00000DFC00000A8
:1000D000DDC00000DBC00000D9C00000D7C00000B8
:1000E000D5C000009C029F028E0292029802D602A6
:1000F000A302A702AD02B102B502BB02BF02C30256
:10010000D602C902CD02D10200002200250028003B
:100110002B002E003100340002010000050108010F
:100120000B01000020002300260029002C002F00D6
:1001300032000001000003010601090100000A0B62
:1001400002090C0D0E080703040100000000000066
:10015000000000000000000000000000000000009F
:10016000000000000000000012111000000000005C
:10017000000000000000000000000000000000007F
:10018000000000002100240027002A002D0030007C
:10019000330001010000040107010A0101021020DF
:1001A00020080810204010204080020102010804AD
:1001B0000201010204081020408080402010080441
:1001C000020180040201804020100804020108049A
:1001D00002010102040810204080010204081020DE
:1001E0004080050505050705080808080202020207
:1001F0000A0A0808040404040101010101010101C3
:100200000303030303030303040707070C0C0C0C8D
:100210000C0C0C0C02020202060606060606060676
:100220000B0B0B0B0B0B0B0B4F07640911241FBEA1
:10023000CFEFD1E2DEBFCDBF00E00CBF22E0AEE1E8
:10024000B2E001C01D92A73FB207E1F712E0A0E0C3
:10025000B2E0ECEAF7E100E00BBF02C007900D92BC
:10026000AE31B107D9F711E0C5E1D1E000E006C039
:1002700021970109802FFE010E94A809C431D107EE
:1002800080E00807A9F74AD60C94C50BB9CECF92E7
:10029000DF92EF92FF920F931F93CF93DF936C0146
:1002A0007A018B01C0E0D0E0CE15DF0581F0D801E6
:1002B0006D918D01D601ED91FC910190F081E02DC1
:1002C000C6011995892B11F02196EECF7E01C70149
:1002D000DF91CF911F910F91FF90EF90DF90CF9022
:1002E0000895089580E090E00895FC01538D448DB9
:1002F000252F30E0842F90E0821B930B541710F0D1
:10030000CF96089501970895FC01918D828D9817DD
:1003100061F0828DDF01A80FB11D5D968C91928DE9
:100320009F5F9F73928F90E008958FEF9FEF0895E6
:10033000FC01918D828D981731F0828DE80FF11DAF
:10034000858D90E008958FEF9FEF0895FC01918DCA
:10035000228D892F90E0805C9F4F821B91098F73C3
:100360009927089589E492E0F1DF21E0892B09F4CF
:1003700020E0822F0895FC01848DDF01A80FB11DBC
:10038000A35ABF4F2C91848D90E001968F739927CB
:10039000848FA689B7892C93A089B1898C918370A9
:1003A00080648C93938D848D981306C00288F389A2
:1003B000E02D80818F7D80830895EF92FF920F93CF
:1003C0001F93CF93DF93EC0181E0888F9B8D8C8D01
:1003D000981305C0E889F989808185FD25C0F62E2E
:1003E0000B8D10E00F5F1F4F0F731127E02E8C8DC8
:1003F000E8120BC00FB607FCFACFE889F9898081B3
:1004000085FFF5CFCE01B7DFF2CF8B8DFE01E80F70
:10041000F11DE35AFF4FF0829FB7F8940B8FEA89E2
:10042000FB89808180620AC09FB7F894EE89FF89BA
:100430006083E889F98980818370806480839FBFAD
:1004400081E090E0DF91CF911F910F91FF90EF90AD
:100450000895CF93DF93EC01888D8823C1F0EA895A
:10046000FB89808185FD05C0A889B9898C9186FDAD
:100470000EC00FB607FCF5CF808185FFF2CFA889AB
:10048000B9898C9185FFEDCFCE0175DFE8CFDF9183
:10049000CF91089580E090E0892B19F063DF8111FE
:1004A00025C080E090E0892B41F080E090E0892B2E
:1004B00021F00E94000081111CC080E090E0892B97
:1004C00041F080E090E0892B21F00E940000811132
:1004D00013C080E090E0892BA1F080E090E0892BB0
:1004E00081F00E94000081110AC008950E9400005E
:1004F000D8CF0E940000E1CF0E940000EACF0C9408
:100500000000089590E0FC013197E231F10508F018
:100510004DC08827EE58FF4F8F4F1AC7809180003B
:100520008F7703C0809180008F7D80938000089535
:1005300080918000877FF9CF84B58F7702C084B522
:100540008F7D84BD08958091B0008F7703C0809126
:10055000B0008F7D8093B0000895809190008F77D8
:1005600007C0809190008F7D03C080919000877FAD
:100570008093900008958091A0008F7707C08091AC
:10058000A0008F7D03C08091A000877F8093A00092
:100590000895809120018F7707C0809120018F7D81
:1005A00003C080912001877F809320010895CF931D
:1005B000DF93282F30E0F901E45CFE4F8491F901CC
:1005C000E456FE4FD491F901EE51FE4FC491CC2375
:1005D00089F0811197DFEC2FF0E0EE0FFF1FEE5D49
:1005E000FE4FA591B491EC91ED2381E090E021F4D0
:1005F00080E002C080E090E0DF91CF9108951F93EA
:10060000CF93DF93282F30E0F901E45CFE4F849113
:10061000F901E456FE4FD491F901EE51FE4FC49119
:10062000CC23B9F0162F81116DDFEC2FF0E0EE0F27
:10063000FF1FE85FFE4FA591B4919FB7F894111189
:1006400004C08C91D095D82302C0EC91DE2BDC93B2
:100650009FBFDF91CF911F910895CF93DF9390E0DB
:10066000FC01E456FE4F2491FC01EE51FE4F8491B3
:10067000882361F190E0880F991FFC01EE57FE4F2F
:10068000C591D491FC01E85FFE4FA591B491611131
:1006900009C09FB7F8948881209582238883EC91C4
:1006A0002E230BC0623061F49FB7F8948881322FFB
:1006B000309583238883EC912E2B2C939FBF06C00B
:1006C0008FB7F894E8812E2B28838FBFDF91CF91CD
:1006D00008953FB7F89480913D0290913E02A09119
:1006E0003F02B091400226B5A89B05C02F3F19F0EC
:1006F0000196A11DB11D3FBFBA2FA92F982F8827A2
:10070000820F911DA11DB11DBC01CD0142E0660FFC
:10071000771F881F991F4A95D1F708958F929F924E
:10072000AF92BF92CF92DF92EF92FF926B017C016A
:10073000D0DF4B015C01C114D104E104F104E9F004
:10074000C8DFDC01CB0188199909AA09BB09883ED9
:100750009340A105B10578F321E0C21AD108E10860
:10076000F10888EE880E83E0981EA11CB11CC1140C
:10077000D104E104F10421F7DECFFF90EF90DF9088
:10078000CF90BF90AF909F908F9008958EBD000046
:100790000DB407FEFDCF8EB50895CF93DF93C82F1C
:1007A000D62F60E089E22BDF65E070E080E090E02A
:1007B000B5DF24E0C29FC0011124C82FC0648C2F74
:1007C000E5DF8D2FE3DF65E070E080E090E0A6DFFD
:1007D00061E089E214DF60E08DE211DF65E070E046
:1007E00080E090E09BDF8C2FD1DF8D2FCFDF65E0A5
:1007F00070E080E090E092DF61E08DE200DF60E099
:1008000081E3FDDE65E070E080E090E087DF8C2F23
:10081000BDDF8D2FBBDF65E070E080E090E07EDF24
:1008200061E081E3DF91CF91EACECF93C82F60E002
:1008300089E2E5DE65E070E080E090E06FDF61E096
:1008400089E2DDDE65E070E080E090E067DF60E097
:1008500089E2D5DE65E070E080E090E05FDF8C2F1C
:1008600095DF65E070E080E090E058DF61E089E2CC
:10087000C6DE60E08DE2C3DE65E070E080E090E01F
:100880004DDF61E08DE2BBDE65E070E080E090E08E
:1008900045DF60E08DE2B3DE65E070E080E090E08F
:1008A0003DDF8C2F73DF65E070E080E090E036DFA5
:1008B00061E08DE2A4DE60E081E3A1DE65E070E04E
:1008C00080E090E02BDF61E081E399DE65E070E09D
:1008D00080E090E023DF60E081E391DE65E070E09E
:1008E00080E090E01BDF8C2F51DF65E070E080E05E
:1008F00090E014DF61E081E3CF9181CE42E050E0EF
:1009000068E172E089E492E0C2CC2BD70F931F9389
:10091000CF93DF93EC0188819981009729F02A8198
:100920003B812617370780F48B016F5F7F4F39D6E5
:10093000009761F0998388831B830A832C813D8112
:10094000232B11F4FC01108281E001C080E0DF91D3
:10095000CF911F910F910895CF93DF93EC01888180
:100960009981009709F094D5198218821D821C8202
:100970001B821A82DF91CF910895EF92FF920F931D
:100980001F93CF93DF93EC01FB0104811581E0807D
:10099000F180E114F104B9F001151105B1F08C8179
:1009A0009D81080F191FB801CE01B0DF882359F0CF
:1009B000288139818C819D81B701820F931FDED6FA
:1009C0001D830C8302C0CE01C7DFCE01DF91CF9122
:1009D0001F910F91FF90EF900895EF92FF920F9368
:1009E0001F93CF93DF931F921F92CDB7DEB78C0179
:1009F00069831A82FC01E480F580FFEFEF1AFF0A99
:100A0000B70184DF882379F0F80120813181848166
:100A10009581BE016F5F7F4F820F931FAFD6F801A4
:100A2000F582E48202C0C80197DFC8010F900F90E1
:100A3000DF91CF911F910F91FF90EF900895EF926A
:100A4000FF920F931F93CF93DF93EC017B018A01F9
:100A5000BA015CDF811103C0CE017EDF06C01D83B9
:100A60000C83B7018881998189D6CE01DF91CF911E
:100A70001F910F91FF90EF900895EF92FF920F93C7
:100A80001F93CF93DF93CDB7DEB7A2970FB6F8943D
:100A9000DEBF0FBECDBF8C01CB01BA01F8011182C0
:100AA000108213821282158214822AE0AE014F5FF7
:100AB0005F4F7A010ED4F70101900020E9F73197DA
:100AC000AF014E195F09B701C801B9DFA2960FB691
:100AD000F894DEBF0FBECDBFDF91CF911F910F9174
:100AE000FF90EF900895CF92DF92EF92FF921F93C5
:100AF000CF93DF93CDB7DEB76A970FB6F894DEBF1A
:100B00000FBECDBF182F60E089E279DD8BE891E060
:100B10000197F1F780E2E82E82E0F82E93E2C92EE9
:100B200092E0D92E8FEF32DEF70181937F01CE164E
:100B3000DF06C1F78BE891E00197F1F761E089E208
:100B40005EDD80E292E0909337028093360260E0AF
:100B50008DE255DDA3E2EA2EA2E0FA2EB6E2CB2E1C
:100B6000B2E0DB2E8FEF12DEF70181937F01CE160C
:100B7000DF06C1F761E08DE242DD83E292E090930F
:100B800035028093340260E081E339DDE6E2EE2E47
:100B9000E2E0FE2EF9E2CF2EF2E0DF2E8FEFF6DD5F
:100BA000F70181937F01CE16DF06C1F761E081E393
:100BB00026DD809120028093330280912102809370
:100BC00032028091220280933102309133024091AF
:100BD000320220913102809123028093330280916E
:100BE0002402809332028091250280933102609129
:100BF0003302809132025091310290E0A0E0B0E0E7
:100C0000962BBA2FA92F982F8827852B80932D02FA
:100C100090932E02A0932F02B0933002809126026F
:100C200080933302809127028093320280912802C0
:100C300080933102609133028091320250913102EF
:100C400090E0A0E0B0E0962BBA2FA92F982F88272C
:100C5000852B8093290290932A02A0932B02B093B4
:100C60002C02112309F464C050E060E070E0532BC3
:100C7000762F652F542F4427422BCE014396FDDE5D
:100C800040912D0250912E0260912F0270913002FE
:100C9000CE010D96F2DE4091290250912A02609118
:100CA0002B0270912C02CE010796E7DE1A82198280
:100CB0001C821B821E821D828AE7898F1A8EBE01CA
:100CC000675E7F4FFB0101900020E9F73197AF018C
:100CD000461B570BCE010196B2DEBE01695F7F4F06
:100CE000CE0101964ADE6AE278DE6EE676DEBE016D
:100CF000635F7F4F42DE6AE270DE65E66EDEBE0154
:100D00006D5E7F4F3ADEFC014481558160817181C7
:100D100089E492E0BCDAF2DD89819A81B9D38F81CE
:100D20009885B6D38D859E85B3D38B899C89B0D3A6
:100D30006A960FB6F894DEBF0FBECDBFDF91CF919C
:100D40001F91FF90EF90DF90CF9008951F920F9228
:100D50000FB60F9211240BB60F922F933F934F9320
:100D60005F936F937F938F939F93AF93BF93EF9313
:100D7000FF9389E492E0FFDAFF91EF91BF91AF9189
:100D80009F918F917F916F915F914F913F912F91A3
:100D90000F900BBE0F900FBE0F901F9018951F92D3
:100DA0000F920FB60F9211240BB60F922F938F93C1
:100DB0009F93EF93FF93E0915902F0915A02808143
:100DC000E0915F02F091600282FD12C090818091FB
:100DD00062028F5F8F7320916302821751F0E0915E
:100DE0006202F0E0E75BFD4F958F8093620201C0E5
:100DF0008081FF91EF919F918F912F910F900BBE6A
:100E00000F900FBE0F901F9018951F920F920FB664
:100E10000F9211242F933F938F939F93AF93BF9380
:100E20008091390290913A02A0913B02B0913C022C
:100E30003091380223E0230F2D3720F40196A11DB5
:100E4000B11D05C026E8230F0296A11DB11D2093F8
:100E500038028093390290933A02A0933B02B093F8
:100E60003C0280913D0290913E02A0913F02B091E0
:100E700040020196A11DB11D80933D0290933E0258
:100E8000A0933F02B0934002BF91AF919F918F9189
:100E90003F912F910F900FBE0F901F901895E9E48E
:100EA000F2E01382128288EE93E0A0E0B0E0848347
:100EB0009583A683B7838AE092E09183808385EC53
:100EC00090E09587848784EC90E09787868780EC14
:100ED00090E0918B808B81EC90E0938B828B82EC05
:100EE00090E0958B848B86EC90E0978B868B118EAF
:100EF000128E138E148EECEEF2E01482158216829E
:100F0000E6EEF2E0118210821382128215821482C0
:100F100040E050E06AE172E0CF0191CD789484B571
:100F2000826084BD84B5816084BD85B5826085BDE5
:100F300085B5816085BD80916E00816080936E0073
:100F40001092810080918100826080938100809165
:100F50008100816080938100809180008160809316
:100F600080008091B10084608093B1008091B000D6
:100F700081608093B00080919100826080939100A5
:100F800080919100816080939100809190008160B8
:100F9000809390008091A10082608093A100809155
:100FA000A10081608093A1008091A0008160809366
:100FB000A000809121018260809321018091210114
:100FC00081608093210180912001816080932001C4
:100FD00080917A00846080937A0080917A008260A8
:100FE00080937A0080917A00816080937A0080916A
:100FF0007A00806880937A001092C100E0915902D3
:10100000F0915A0282E08083E0915502F0915602FD
:101010001082E0915702F091580280E18083109293
:101020006102E0915D02F0915E0286E08083E091D2
:101030005B02F0915C02808180618083E0915B02C1
:10104000F0915C02808188608083E0915B02F09186
:101050005C02808180688083E0915B02F0915C0299
:1010600080818F7D808361E089E2F7DA61E089E247
:10107000C6DA60E087E2F1DA65E070E080E090E0F7
:101080004DDB61E08DE2E9DA61E08DE2B8DA60E043
:101090008BE2E3DA65E070E080E090E03FDB61E066
:1010A00081E3DBDA61E081E3AADA60E08FE2D5DA9E
:1010B00065E070E080E090E031DB61E08CE1CDDA6A
:1010C00061E08CE19CDA61E085E3C7DA60E082E010
:1010D000C4DA91E8F92E24E6E22E30ECD32EC7E1F3
:1010E000D2E001ED11E089E492E030D9892B09F4D6
:1010F0007AC0CFB6F89480914102811122C0FE01DE
:101100008491F8012491E82FF0E0EE0FFF1FEE57D5
:10111000FE4FA591B4919C91822F892319F461E02F
:1011200085E36DDA61E085E398DA8CB580618CBD8A
:101130008CB580648CBD61E084E38FDA61E083E389
:101140008CDA809141028F5F80934102CFBE8CB5D3
:10115000837F84608CBD64E670E080E090E0DEDA3E
:1011600086E063DB64E670E080E090E0D7DAF0923E
:10117000EC02E092ED02D092EE021092EF0261E8F2
:1011800080E00BDB6091ED0281E007DB6091EE0215
:1011900082E003DB6091EF0283E0FFDA64E670E057
:1011A00080E090E0BBDA88E040DB64E670E080E05D
:1011B00090E0B4DA87E2FBD9892BE1F78BE2F7D92B
:1011C000892BC1F78FE2F3D9892BA1F780E08BDC63
:1011D00089E492E03ED989E492E096D8C097909352
:1011E00048028093470280914702909148020197FC
:1011F00009F05BC087E2DBD9892B49F48BE2D7D9B0
:10120000892B29F48FE2D3D9892B09F450C080911E
:101210004402909145028436910531F58091460251
:10122000811115C081E08093460210924502109210
:1012300044028CE1BCD9892B11F461E005C08CE13A
:10124000B6D9019789F460E08CE1D9D90DC08091BD
:10125000420290914302019690934302809342028E
:1012600010924502109244028091420290914302F2
:10127000833A9440D1F48CE19AD9892B11F461E03E
:1012800005C08CE194D9019719F460E08CE1B7D9DD
:10129000109243021092420241E050E06BE172E092
:1012A00089E492E00E94470129DBF4D81CCF8091A9
:1012B000460219DC80914402909145020196909378
:1012C000450280934402A3CF8091E6029091E70209
:1012D000DFC0BB272A3051F4992342F4BDE2909538
:1012E0008095709561957F4F8F4F9F4F01C0BB27B1
:1012F000FA01A62F6217710581059105330B30FBAA
:1013000066F0AA27660F771F881F991FAA1FA217CA
:1013100010F0A21B63953850A9F7A05DAA3308F01E
:10132000A95DA19336F7B111B1931082CA0100C033
:10133000DC01FC01672F71917723E1F7329704C03C
:101340007C916D9370836291AE17BF07C8F30895C7
:10135000EE0FFF1F881F8BBF0790F691E02D1994A9
:101360000F931F93CF93DF938230910510F482E0A7
:1013700090E0E091F502F091F60220E030E0A0E08C
:10138000B0E0309719F140815181028113814817F3
:101390005907C8F08417950769F4109731F0129631
:1013A0000C93129713961C9327C00093F502109389
:1013B000F60222C02115310519F04217530718F41F
:1013C0009A01BD01EF01DF01F801DBCF21153105E5
:1013D000F9F0281B390B2430310580F48A819B8178
:1013E0006115710521F0FB019383828304C0909302
:1013F000F6028093F502FE01329644C0FE01E20F30
:10140000F31F8193919322503109398328833AC085
:101410002091F3023091F402232B41F42091020237
:10142000309103023093F4022093F30220910002E2
:10143000309101022115310541F42DB73EB740919D
:10144000040250910502241B350BE091F302F09148
:10145000F402E217F307A0F42E1B3F0B28173907FD
:1014600078F0AC014E5F5F4F2417350748F04E0F00
:101470005F1F5093F4024093F3028193919302C053
:10148000E0E0F0E0CF01DF91CF911F910F9108953F
:10149000CF93DF93009709F481C0FC013297138248
:1014A0001282A091F502B091F602109781F420818A
:1014B0003181820F931F2091F3023091F40228179B
:1014C000390751F5F093F402E093F30267C0ED01A0
:1014D00020E030E0CE17DF0740F44A815B819E01B7
:1014E00041155105F1F0EA01F5CFD383C283408164
:1014F0005181840F951FC817D90759F488819981A4
:10150000840F951F0296918380838A819B819383A8
:1015100082832115310529F4F093F602E093F50258
:101520003DC0E901FB83EA8349915991C40FD51F5E
:10153000EC17FD0761F480819181840F951F02965D
:10154000E90199838883828193819B838A83E0E088
:10155000F0E012968D919C911397009719F0FD0180
:10156000DC01F7CF8D919C9111979D012E5F3F4F2C
:10157000820F931F2091F3023091F402281739074C
:1015800069F4309729F41092F6021092F50202C025
:1015900013821282B093F402A093F302DF91CF91F1
:1015A00008956F927F928F929F92AF92BF92CF9247
:1015B000DF92EF92FF920F931F93CF93DF930097E9
:1015C00081F4CB01DF91CF911F910F91FF90EF90AC
:1015D000DF90CF90BF90AF909F908F907F906F9053
:1015E000BFCEFC01E60FF71F9C0122503109E21724
:1015F000F30708F4A5C0EC01D9010D911C911197D6
:1016000006171707A8F00530110508F497C0C801A0
:1016100004978617970708F491C002501109061B1A
:10162000170B019311936D937C93CF0131DF86C02B
:101630005B01A01AB10A4C01800E911EA091F50227
:10164000B091F602612C712CE12CF12C109709F469
:1016500046C08D919C911197A815B905B1F56C0103
:1016600042E0C40ED11CCA14DB0478F14C018A1884
:101670009B08640142E0C40ED11C1296BC901297E4
:101680001396AC91B5E0CB16D10440F0B282A3839F
:1016900091828082D9016D937C9309C00E5F1F4FA8
:1016A000800F911FF90191838083EB2DFA2FE114B4
:1016B000F10431F0D7011396FC93EE9312973EC0DC
:1016C000F093F602E093F50239C06816790608F443
:1016D0003C017D0112960D90BC91A02DB7CF809159
:1016E000F3029091F40288169906E1F466167706E3
:1016F000C8F48091000290910102009741F48DB7E7
:101700009EB74091040250910502841B950BE81787
:10171000F907B0F4F093F402E093F302F901718356
:1017200060830CC0CB011CDE7C01009749F0A8014E
:10173000BE011BD0CE01ACDEC70104C0CE0102C089
:1017400080E090E0DF91CF911F910F91FF90EF909B
:10175000DF90CF90BF90AF909F908F907F906F90D1
:10176000089581E090E0F89410C0FB01DC0102C014
:1017700001900D9241505040D8F70895FB01DC01D3
:1017800001900D920020E1F7089511E0C5E1D1E04C
:1017900000E005C0802FFE01DBDD2196011DC63172
:0C17A000D10780E00807B1F7F894FFCFF4
:1017AC000000F702800000000000DD014701750118
:0E17BC002902A601840198010D0A002A0000EE
:00000001FF
